:020000040000FA
:100000006802001069010000710100007301000026
:100010007501000077010000790100000000000078
:100020000000000000000000000000007B01000054
:100030007D010000000000007F0100008101000040
:1000400083010000830100008301000083010000A0
:100050008301000083010000830100008301000090
:100060008301000083010000830100008301000080
:100070008301000083010000830100008301000070
:100080008301000083010000830100008301000060
:100090008301000083010000830100008301000050
:1000A0008301000083010000830100008301000040
:1000B0008301000083010000830100008301000030
:1000C00083010000830100008301000000F002F8BA
:1000D00000F03AF80AA090E8000C82448344AAF1A8
:1000E0000107DA4501D100F02FF8AFF2090EBAE8A6
:1000F0000F0013F0010F18BFFB1A43F0010318475C
:100100001801000038010000103A24BF78C878C1F7
:10011000FAD8520724BF30C830C144BF04680C600D
:10012000704700000023002400250026103A28BF55
:1001300078C1FBD8520728BF30C148BF0B60704759
:100140001FB51FBD10B510BD00F02FF81146FFF709
:10015000F7FF00F0F5FA00F04DF803B4FFF7F2FFF7
:1001600003BC00F051F800000948804709480047E7
:10017000FEE7FEE7FEE7FEE7FEE7FEE7FEE7FEE757
:10018000FEE7FEE704480549034A054B70470000B7
:1001900001030000CD00000068000010680200109C
:1001A00068000010704770477047754600F028F8E7
:1001B000AE4605006946534620F00700854618B054
:1001C00020B5FFF7DFFFBDE820404FF000064FF0FD
:1001D00000074FF000084FF0000B21F00701AC467C
:1001E000ACE8C009ACE8C009ACE8C009ACE8C0099B
:1001F0008D4670470446AFF300802046FFF7ADFF01
:10020000004870470400001001491820ABBEFEE70B
:1002100026000200704700007C070000000000106C
:100220000400000008010000800700000400001026
:100230006402000024010000000000000000000033
:1002400000000000000000000000000000000000AE
:10025000000000000000000000000000000000009E
:10026000000000000000000000000000000000008E
:10027000000000000000000000000000000000007E
:10028000000000000000000000000000000000006E
:10029000000000000000000000000000000000005E
:1002A000000000000000000000000000000000004E
:1002B000000000000000000000000000000000003E
:1002C000000000000000000000000000000000002E
:1002D000000000000000000000000000000000001E
:1002E000000000000000000000000000000000000E
:1002F000000000000000000000000000FFFFFFFF02
:1003000020208449086000BF8248006810F0400F38
:10031000FAD00320804908604FF000007F49C1F8FF
:10032000A8017F4908604FF001007E4908604FF046
:100330000B007D4908604FF00100A1F10401086045
:100340004FF0AA00794908604FF055007349C1F891
:100350008C0000BF7648006810F0806FFAD0032050
:10036000744908604FF0AA006C49C1F88C004FF046
:1003700055006E4908604FF023006F4908604FF048
:100380000100A1F1040108604FF0AA006B49086068
:100390004FF05500086000BF6948006810F4806F96
:1003A000FAD00320674908604FF0AA005B49C1F802
:1003B000AC004FF05500614908606348634908602C
:1003C0004FF000005549C1F8C8010846D0F8880030
:1003D000C0F30160032868D15248006810F00300A0
:1003E00006D0012823D002283FD003285CD100E0AA
:1003F00000BF4F480068C0F30E0000F101004FEA53
:1004000040014648D0F88800C0F3074000F10100E1
:10041000B1FBF0F04E4900FB01F03F490968C9B259
:1004200001F10101B0FBF1F04A4908603CE04048AD
:100430000068C0F30E0000F101004FEA40013748A8
:10044000D0F88800C0F3074000F10100B1FBF0F0E4
:10045000414900FB01F030490968C9B201F10101CD
:10046000B0FBF1F03B4908601EE031480068C0F382
:100470000E0000F101004FEA40012848D0F8880042
:10048000C0F3074000F10100B1FBF0F04FF4FA4176
:1004900000FB01F020490968C9B201F10101B0FB7C
:1004A000F1F02C49086000BF2FE01E48006810F0F2
:1004B000030006D0012810D0022819D0032823D128
:1004C00000E000BF14480068C0B200F101002049FC
:1004D000B1FBF0F01F49086016E00F480068C0B299
:1004E00000F101001C49B1FBF0F01A4908600BE073
:1004F00009480068C0B200F101004FF4FA41B1FBB5
:10050000F0F01449086000BF00BF43F23A0003490D
:1005100008607047A0C10F4004C10F4000C00F40E9
:10052000ACC10F400CC10F4084C00F408CC00F40C5
:1005300088C00F4080C00F40A4C00F40ACC00F4027
:10054000A8C00F40A0C00F40DE872806C4C00F40DF
:1005500000093D0000000010001BB7000CB5002092
:100560000190009001900DE00020009002E00098C2
:10057000401C009042F2107100988842F7DB01980D
:10058000401C019001980A28EEDB0CBD7449496BB0
:100590007349496D7249496D21F0F001704A516506
:1005A0001146496D00F0010241EA02116C4A5165A1
:1005B0001146496DC0F3400241EA4211684A516553
:1005C0001146496DC0F3800241EA8211644A5165C7
:1005D0001146496DC0F3C00241EAC211604A51653B
:1005E000704710B504462009FFF7D0FF5C48406B08
:1005F00020F080705A4948630846406B20F40000A0
:1006000048630846406B40F480004863FFF7A6FF4C
:100610005348406B20F4800051494863FFF79EFF28
:1006200004F00F00FFF7B2FF4D48406B20F08070E0
:100630004B4948630846406B20F400004863084675
:10064000406B40F480004863FFF788FF4448406BEC
:1006500020F4800042494863FFF780FF10BD00B5D9
:100660003F48006C40F0F0003D4908640846006ACD
:1006700040F0F07008620846406B40F40010486398
:100680000220FFF7AEFF2820FFF7ABFF0E20FFF799
:10069000A8FF0120FFF7A5FF8020FFF7A2FF00BD04
:1006A00010B504462009FFF771FF2D48406B40F05C
:1006B00080702B4948630846406B20F40000486373
:1006C0000846406B40F480004863FFF747FF24482A
:1006D000406B20F4800022494863FFF73FFF04F09D
:1006E0000F00FFF753FF1E48406B40F080701C491D
:1006F00048630846406B20F4000048630846406B9E
:1007000040F480004863FFF729FF1548406B20F450
:10071000800013494863FFF721FF10BD30B5044640
:100720000D4603E02078FFF7BBFF641C207800280B
:10073000F8D130BD10B504460120FFF752FF10BDBF
:10074000FFF78DFF002107A0FFF7E8FFC020FFF7AC
:1007500048FF002106A0FFF7E1FF00BFFEE7000011
:1007600000C009205352494E494241530000000045
:100770004D4F4841504154524100000000093D0096
:04000005000001698D
:00000001FF
